:020000000329D2
:0E000600213083120313FD00FD0B07280800B4
:100014000F3083120313FC004730FD00FD0B102842
:0A002400FC0B10280000000008008B
:06002E00000000000800C4
:1000340083120313CA1B20288611212886154A1B04
:100044002528061126280615CA1A2A2886102B28C0
:1000540086144A1A2F280610302806144218342809
:10006400061635280612861617208612CA193C2849
:1000740086113D2886154A1941280611422806157D
:10008400CA1846288610472886144A184B28061092
:100094004C280614421850280616512806128616B3
:1000A40017208612421C58280A20592803200800C9
:0E00B4008312031344088A00430882000800E8
:1000C2008312031342104908CA001A20421408007E
:1000D2008316031386120612061086100611861165
:1000E20083128612061286110611861006100A2045
:1000F2000A200A20861406148616172086120A2061
:100102008616172086120A208616172086120A20C3
:1001120006108616172086120A20861617208612C7
:10012200861086158616172086120A208611061456
:1001320086161720861206108616172086120A20A7
:1001420086161720861206148616172086120A2093
:1001520006108616172086128615061586140614B2
:0C0162008616172086120A20421408009E
:10016E00C928803083120313C500DC28C030C500B7
:10017E00DC289430C500DC28D430C500DC28803063
:10018E00C500DC28831203134508013A0319B82869
:10019E004508023A0319BD284508033A0319C02839
:1001AE004508043A0319C328C6284603F00045083B
:1001BE00F0077008C5007008CA001A204210C80166
:1001CE0048084707840000080319F5284808470720
:1001DE0084000008C9006120C80AE72842140800FC
:1001EE005A208A110A128000840AC30A0319C40A0B
:0801FE00F003031DF7280800BF
:10020600453083120313A0004E30A1004730A200F0
:100216002030A3004130A4004830A5004D30A60090
:100226004530A7004430A8002030A9004E30AA006F
:100236004130AB004730AC005530AD004930AE0020
:100246004230AF00B0014830B1004530B2004C300A
:10025600B3004C30B4004F30B5002030B600453006
:10026600B7005630B8004530B9005230BA005930A0
:10027600BB002030BC004230BD004F30BE004430D1
:10028600BF005930C000C10169200130CA001A20E0
:100296000C30CA001A200130C5000130C6003130CA
:1002A600C700B7201530FB004B30FC00BE30FD0008
:1002B600FD0B5B29FC0B5B29FB0B5B290000013066
:1002C600CA001A200230C5000130C6002030C7001F
:0402D600B7206C29B8
:02400E004A2F37
:00000001FF
